{
  "contractName": "LendingPlatform",
  "abi": [
    {
      "anonymous": false,
      "inputs": [
        {
          "indexed": false,
          "internalType": "uint256",
          "name": "requestId",
          "type": "uint256"
        },
        {
          "indexed": false,
          "internalType": "address",
          "name": "lender",
          "type": "address"
        }
      ],
      "name": "LoanFunded",
      "type": "event"
    },
    {
      "anonymous": false,
      "inputs": [
        {
          "indexed": false,
          "internalType": "uint256",
          "name": "offerId",
          "type": "uint256"
        },
        {
          "indexed": false,
          "internalType": "address",
          "name": "lender",
          "type": "address"
        },
        {
          "indexed": false,
          "internalType": "uint256",
          "name": "amount",
          "type": "uint256"
        },
        {
          "indexed": false,
          "internalType": "uint256",
          "name": "interestRate",
          "type": "uint256"
        }
      ],
      "name": "LoanOffered",
      "type": "event"
    },
    {
      "anonymous": false,
      "inputs": [
        {
          "indexed": false,
          "internalType": "uint256",
          "name": "requestId",
          "type": "uint256"
        },
        {
          "indexed": false,
          "internalType": "address",
          "name": "borrower",
          "type": "address"
        }
      ],
      "name": "LoanRepaid",
      "type": "event"
    },
    {
      "anonymous": false,
      "inputs": [
        {
          "indexed": false,
          "internalType": "uint256",
          "name": "requestId",
          "type": "uint256"
        },
        {
          "indexed": false,
          "internalType": "address",
          "name": "borrower",
          "type": "address"
        },
        {
          "indexed": false,
          "internalType": "uint256",
          "name": "amount",
          "type": "uint256"
        },
        {
          "indexed": false,
          "internalType": "uint256",
          "name": "interestRate",
          "type": "uint256"
        }
      ],
      "name": "LoanRequested",
      "type": "event"
    },
    {
      "inputs": [],
      "name": "loanOfferCount",
      "outputs": [
        {
          "internalType": "uint256",
          "name": "",
          "type": "uint256"
        }
      ],
      "stateMutability": "view",
      "type": "function",
      "constant": true
    },
    {
      "inputs": [
        {
          "internalType": "uint256",
          "name": "",
          "type": "uint256"
        }
      ],
      "name": "loanOffers",
      "outputs": [
        {
          "internalType": "address payable",
          "name": "lender",
          "type": "address"
        },
        {
          "internalType": "uint256",
          "name": "amount",
          "type": "uint256"
        },
        {
          "internalType": "uint256",
          "name": "interestRate",
          "type": "uint256"
        },
        {
          "internalType": "bool",
          "name": "isAccepted",
          "type": "bool"
        },
        {
          "internalType": "bool",
          "name": "isRepaid",
          "type": "bool"
        }
      ],
      "stateMutability": "view",
      "type": "function",
      "constant": true
    },
    {
      "inputs": [],
      "name": "loanRequestCount",
      "outputs": [
        {
          "internalType": "uint256",
          "name": "",
          "type": "uint256"
        }
      ],
      "stateMutability": "view",
      "type": "function",
      "constant": true
    },
    {
      "inputs": [
        {
          "internalType": "uint256",
          "name": "",
          "type": "uint256"
        }
      ],
      "name": "loanRequests",
      "outputs": [
        {
          "internalType": "address payable",
          "name": "borrower",
          "type": "address"
        },
        {
          "internalType": "uint256",
          "name": "amount",
          "type": "uint256"
        },
        {
          "internalType": "uint256",
          "name": "interestRate",
          "type": "uint256"
        },
        {
          "internalType": "bool",
          "name": "isFunded",
          "type": "bool"
        },
        {
          "internalType": "bool",
          "name": "isRepaid",
          "type": "bool"
        },
        {
          "internalType": "address payable",
          "name": "lender",
          "type": "address"
        }
      ],
      "stateMutability": "view",
      "type": "function",
      "constant": true
    },
    {
      "inputs": [
        {
          "internalType": "uint256",
          "name": "_amount",
          "type": "uint256"
        },
        {
          "internalType": "uint256",
          "name": "_interestRate",
          "type": "uint256"
        }
      ],
      "name": "requestLoan",
      "outputs": [],
      "stateMutability": "nonpayable",
      "type": "function"
    },
    {
      "inputs": [
        {
          "internalType": "uint256",
          "name": "_amount",
          "type": "uint256"
        },
        {
          "internalType": "uint256",
          "name": "_interestRate",
          "type": "uint256"
        }
      ],
      "name": "offerLoan",
      "outputs": [],
      "stateMutability": "nonpayable",
      "type": "function"
    },
    {
      "inputs": [
        {
          "internalType": "uint256",
          "name": "_requestId",
          "type": "uint256"
        }
      ],
      "name": "fundLoan",
      "outputs": [],
      "stateMutability": "payable",
      "type": "function",
      "payable": true
    },
    {
      "inputs": [
        {
          "internalType": "uint256",
          "name": "_requestId",
          "type": "uint256"
        }
      ],
      "name": "repayLoan",
      "outputs": [],
      "stateMutability": "payable",
      "type": "function",
      "payable": true
    },
    {
      "inputs": [],
      "name": "getActiveLoanRequests",
      "outputs": [
        {
          "components": [
            {
              "internalType": "address payable",
              "name": "borrower",
              "type": "address"
            },
            {
              "internalType": "uint256",
              "name": "amount",
              "type": "uint256"
            },
            {
              "internalType": "uint256",
              "name": "interestRate",
              "type": "uint256"
            },
            {
              "internalType": "bool",
              "name": "isFunded",
              "type": "bool"
            },
            {
              "internalType": "bool",
              "name": "isRepaid",
              "type": "bool"
            },
            {
              "internalType": "address payable",
              "name": "lender",
              "type": "address"
            }
          ],
          "internalType": "struct LendingPlatform.LoanRequest[]",
          "name": "",
          "type": "tuple[]"
        }
      ],
      "stateMutability": "view",
      "type": "function",
      "constant": true
    },
    {
      "inputs": [],
      "name": "getActiveLoanOffers",
      "outputs": [
        {
          "components": [
            {
              "internalType": "address payable",
              "name": "lender",
              "type": "address"
            },
            {
              "internalType": "uint256",
              "name": "amount",
              "type": "uint256"
            },
            {
              "internalType": "uint256",
              "name": "interestRate",
              "type": "uint256"
            },
            {
              "internalType": "bool",
              "name": "isAccepted",
              "type": "bool"
            },
            {
              "internalType": "bool",
              "name": "isRepaid",
              "type": "bool"
            }
          ],
          "internalType": "struct LendingPlatform.LoanOffer[]",
          "name": "",
          "type": "tuple[]"
        }
      ],
      "stateMutability": "view",
      "type": "function",
      "constant": true
    }
  ],
  "bytecode": "0x608060405234801561000f575f80fd5b5061170d8061001d5f395ff3fe608060405260043610610090575f3560e01c8063aa452fa611610058578063aa452fa61461016e578063ab7b1c8914610196578063b786f978146101b2578063d1b332f4146101dc578063dc4c2e7f1461021d57610090565b8063150a6422146100945780632c7bdd4b146100be578063846b909a146100fe578063904796d41461011a5780639772d7ee14610144575b5f80fd5b34801561009f575f80fd5b506100a8610245565b6040516100b59190610ea9565b60405180910390f35b3480156100c9575f80fd5b506100e460048036038101906100df9190610ef0565b61024b565b6040516100f5959493929190610f74565b60405180910390f35b61011860048036038101906101139190610ef0565b6102b5565b005b348015610125575f80fd5b5061012e610461565b60405161013b9190611100565b60405180910390f35b34801561014f575f80fd5b50610158610644565b6040516101659190611241565b60405180910390f35b348015610179575f80fd5b50610194600480360381019061018f9190611261565b61087a565b005b6101b060048036038101906101ab9190610ef0565b610a24565b005b3480156101bd575f80fd5b506101c6610c10565b6040516101d39190610ea9565b60405180910390f35b3480156101e7575f80fd5b5061020260048036038101906101fd9190610ef0565b610c16565b6040516102149695949392919061129f565b60405180910390f35b348015610228575f80fd5b50610243600480360381019061023e9190611261565b610ca5565b005b60035481565b6001602052805f5260405f205f91509050805f015f9054906101000a900473ffffffffffffffffffffffffffffffffffffffff1690806001015490806002015490806003015f9054906101000a900460ff16908060030160019054906101000a900460ff16905085565b5f805f8381526020019081526020015f209050806003015f9054906101000a900460ff1615610319576040517f08c379a000000000000000000000000000000000000000000000000000000000815260040161031090611358565b60405180910390fd5b8060010154341461035f576040517f08c379a0000000000000000000000000000000000000000000000000000000008152600401610356906113c0565b60405180910390fd5b805f015f9054906101000a900473ffffffffffffffffffffffffffffffffffffffff1673ffffffffffffffffffffffffffffffffffffffff166108fc3490811502906040515f60405180830381858888f193505050501580156103c4573d5f803e3d5ffd5b506001816003015f6101000a81548160ff021916908315150217905550338160030160026101000a81548173ffffffffffffffffffffffffffffffffffffffff021916908373ffffffffffffffffffffffffffffffffffffffff1602179055507f15feab5d3eb17171632762cf769709a315dd15f487a556c0dfb8a259c8f186cc82336040516104559291906113fe565b60405180910390a15050565b60605f805b6003548110156104b75760015f8281526020019081526020015f206003015f9054906101000a900460ff166104a45781806104a090611452565b9250505b80806104af90611452565b915050610466565b505f8167ffffffffffffffff8111156104d3576104d2611499565b5b60405190808252806020026020018201604052801561050c57816020015b6104f9610ded565b8152602001906001900390816104f15790505b5090505f805b60035481101561063a5760015f8281526020019081526020015f206003015f9054906101000a900460ff166106275760015f8281526020019081526020015f206040518060a00160405290815f82015f9054906101000a900473ffffffffffffffffffffffffffffffffffffffff1673ffffffffffffffffffffffffffffffffffffffff1673ffffffffffffffffffffffffffffffffffffffff1681526020016001820154815260200160028201548152602001600382015f9054906101000a900460ff161515151581526020016003820160019054906101000a900460ff16151515158152505083838151811061060d5761060c6114c6565b5b6020026020010181905250818061062390611452565b9250505b808061063290611452565b915050610512565b5081935050505090565b60605f805b600254811015610699575f808281526020019081526020015f206003015f9054906101000a900460ff1661068657818061068290611452565b9250505b808061069190611452565b915050610649565b505f8167ffffffffffffffff8111156106b5576106b4611499565b5b6040519080825280602002602001820160405280156106ee57816020015b6106db610e31565b8152602001906001900390816106d35790505b5090505f805b600254811015610870575f808281526020019081526020015f206003015f9054906101000a900460ff1661085d575f808281526020019081526020015f206040518060c00160405290815f82015f9054906101000a900473ffffffffffffffffffffffffffffffffffffffff1673ffffffffffffffffffffffffffffffffffffffff1673ffffffffffffffffffffffffffffffffffffffff1681526020016001820154815260200160028201548152602001600382015f9054906101000a900460ff161515151581526020016003820160019054906101000a900460ff161515151581526020016003820160029054906101000a900473ffffffffffffffffffffffffffffffffffffffff1673ffffffffffffffffffffffffffffffffffffffff1673ffffffffffffffffffffffffffffffffffffffff1681525050838381518110610843576108426114c6565b5b6020026020010181905250818061085990611452565b9250505b808061086890611452565b9150506106f4565b5081935050505090565b6040518060c001604052803373ffffffffffffffffffffffffffffffffffffffff1681526020018381526020018281526020015f151581526020015f151581526020015f73ffffffffffffffffffffffffffffffffffffffff168152505f8060025481526020019081526020015f205f820151815f015f6101000a81548173ffffffffffffffffffffffffffffffffffffffff021916908373ffffffffffffffffffffffffffffffffffffffff16021790555060208201518160010155604082015181600201556060820151816003015f6101000a81548160ff02191690831515021790555060808201518160030160016101000a81548160ff02191690831515021790555060a08201518160030160026101000a81548173ffffffffffffffffffffffffffffffffffffffff021916908373ffffffffffffffffffffffffffffffffffffffff1602179055509050507f68595dbe887ae7f496f2c88735019a8918919a1decfdee6bdb460480ab87decb600254338484604051610a0194939291906114f3565b60405180910390a160025f815480929190610a1b90611452565b91905055505050565b5f805f8381526020019081526020015f209050806003015f9054906101000a900460ff16610a87576040517f08c379a0000000000000000000000000000000000000000000000000000000008152600401610a7e90611580565b60405180910390fd5b8060030160019054906101000a900460ff1615610ad9576040517f08c379a0000000000000000000000000000000000000000000000000000000008152600401610ad0906115e8565b60405180910390fd5b5f606482600201548360010154610af09190611606565b610afa9190611674565b8260010154610b0991906116a4565b9050803414610b4d576040517f08c379a0000000000000000000000000000000000000000000000000000000008152600401610b44906113c0565b60405180910390fd5b8160030160029054906101000a900473ffffffffffffffffffffffffffffffffffffffff1673ffffffffffffffffffffffffffffffffffffffff166108fc3490811502906040515f60405180830381858888f19350505050158015610bb4573d5f803e3d5ffd5b5060018260030160016101000a81548160ff0219169083151502179055507fe69d7686a8bc68278b8c5419579f91716b3ef2ac2fac0d8cf80b8011f8f458a48333604051610c039291906113fe565b60405180910390a1505050565b60025481565b5f602052805f5260405f205f91509050805f015f9054906101000a900473ffffffffffffffffffffffffffffffffffffffff1690806001015490806002015490806003015f9054906101000a900460ff16908060030160019054906101000a900460ff16908060030160029054906101000a900473ffffffffffffffffffffffffffffffffffffffff16905086565b6040518060a001604052803373ffffffffffffffffffffffffffffffffffffffff1681526020018381526020018281526020015f151581526020015f151581525060015f60035481526020019081526020015f205f820151815f015f6101000a81548173ffffffffffffffffffffffffffffffffffffffff021916908373ffffffffffffffffffffffffffffffffffffffff16021790555060208201518160010155604082015181600201556060820151816003015f6101000a81548160ff02191690831515021790555060808201518160030160016101000a81548160ff0219169083151502179055509050507f9c30abd0e9d523017113f5d5e193a610ccac429f1148088cb393f58d547e3f57600354338484604051610dca94939291906114f3565b60405180910390a160035f815480929190610de490611452565b91905055505050565b6040518060a001604052805f73ffffffffffffffffffffffffffffffffffffffff1681526020015f81526020015f81526020015f151581526020015f151581525090565b6040518060c001604052805f73ffffffffffffffffffffffffffffffffffffffff1681526020015f81526020015f81526020015f151581526020015f151581526020015f73ffffffffffffffffffffffffffffffffffffffff1681525090565b5f819050919050565b610ea381610e91565b82525050565b5f602082019050610ebc5f830184610e9a565b92915050565b5f80fd5b610ecf81610e91565b8114610ed9575f80fd5b50565b5f81359050610eea81610ec6565b92915050565b5f60208284031215610f0557610f04610ec2565b5b5f610f1284828501610edc565b91505092915050565b5f73ffffffffffffffffffffffffffffffffffffffff82169050919050565b5f610f4482610f1b565b9050919050565b610f5481610f3a565b82525050565b5f8115159050919050565b610f6e81610f5a565b82525050565b5f60a082019050610f875f830188610f4b565b610f946020830187610e9a565b610fa16040830186610e9a565b610fae6060830185610f65565b610fbb6080830184610f65565b9695505050505050565b5f81519050919050565b5f82825260208201905092915050565b5f819050602082019050919050565b610ff781610f3a565b82525050565b61100681610e91565b82525050565b61101581610f5a565b82525050565b60a082015f82015161102f5f850182610fee565b5060208201516110426020850182610ffd565b5060408201516110556040850182610ffd565b506060820151611068606085018261100c565b50608082015161107b608085018261100c565b50505050565b5f61108c838361101b565b60a08301905092915050565b5f602082019050919050565b5f6110ae82610fc5565b6110b88185610fcf565b93506110c383610fdf565b805f5b838110156110f35781516110da8882611081565b97506110e583611098565b9250506001810190506110c6565b5085935050505092915050565b5f6020820190508181035f83015261111881846110a4565b905092915050565b5f81519050919050565b5f82825260208201905092915050565b5f819050602082019050919050565b60c082015f82015161115d5f850182610fee565b5060208201516111706020850182610ffd565b5060408201516111836040850182610ffd565b506060820151611196606085018261100c565b5060808201516111a9608085018261100c565b5060a08201516111bc60a0850182610fee565b50505050565b5f6111cd8383611149565b60c08301905092915050565b5f602082019050919050565b5f6111ef82611120565b6111f9818561112a565b93506112048361113a565b805f5b8381101561123457815161121b88826111c2565b9750611226836111d9565b925050600181019050611207565b5085935050505092915050565b5f6020820190508181035f83015261125981846111e5565b905092915050565b5f806040838503121561127757611276610ec2565b5b5f61128485828601610edc565b925050602061129585828601610edc565b9150509250929050565b5f60c0820190506112b25f830189610f4b565b6112bf6020830188610e9a565b6112cc6040830187610e9a565b6112d96060830186610f65565b6112e66080830185610f65565b6112f360a0830184610f4b565b979650505050505050565b5f82825260208201905092915050565b7f4c6f616e20697320616c72656164792066756e646564000000000000000000005f82015250565b5f6113426016836112fe565b915061134d8261130e565b602082019050919050565b5f6020820190508181035f83015261136f81611336565b9050919050565b7f496e636f727265637420616d6f756e74000000000000000000000000000000005f82015250565b5f6113aa6010836112fe565b91506113b582611376565b602082019050919050565b5f6020820190508181035f8301526113d78161139e565b9050919050565b5f6113e882610f1b565b9050919050565b6113f8816113de565b82525050565b5f6040820190506114115f830185610e9a565b61141e60208301846113ef565b9392505050565b7f4e487b71000000000000000000000000000000000000000000000000000000005f52601160045260245ffd5b5f61145c82610e91565b91507fffffffffffffffffffffffffffffffffffffffffffffffffffffffffffffffff820361148e5761148d611425565b5b600182019050919050565b7f4e487b71000000000000000000000000000000000000000000000000000000005f52604160045260245ffd5b7f4e487b71000000000000000000000000000000000000000000000000000000005f52603260045260245ffd5b5f6080820190506115065f830187610e9a565b61151360208301866113ef565b6115206040830185610e9a565b61152d6060830184610e9a565b95945050505050565b7f4c6f616e206973206e6f742066756e64656400000000000000000000000000005f82015250565b5f61156a6012836112fe565b915061157582611536565b602082019050919050565b5f6020820190508181035f8301526115978161155e565b9050919050565b7f4c6f616e20697320616c726561647920726570616964000000000000000000005f82015250565b5f6115d26016836112fe565b91506115dd8261159e565b602082019050919050565b5f6020820190508181035f8301526115ff816115c6565b9050919050565b5f61161082610e91565b915061161b83610e91565b925082820261162981610e91565b915082820484148315176116405761163f611425565b5b5092915050565b7f4e487b71000000000000000000000000000000000000000000000000000000005f52601260045260245ffd5b5f61167e82610e91565b915061168983610e91565b92508261169957611698611647565b5b828204905092915050565b5f6116ae82610e91565b91506116b983610e91565b92508282019050808211156116d1576116d0611425565b5b9291505056fea264697066735822122092d1ddae2114a0d01086fb51386bd28133cdcaae7f99b6e4b6fb8a1c1f26c5e364736f6c63430008150033",
  "immutableReferences": {},
  "source": "// SPDX-License-Identifier: MIT\npragma solidity ^0.8.0;\n\ncontract LendingPlatform {\n    struct LoanRequest {\n        address payable borrower;\n        uint amount;\n        uint interestRate;\n        bool isFunded;\n        bool isRepaid;\n        address payable lender; // Added lender address to LoanRequest\n    }\n\n    struct LoanOffer {\n        address payable lender;\n        uint amount;\n        uint interestRate;\n        bool isAccepted;\n        bool isRepaid;\n    }\n\n    mapping(uint => LoanRequest) public loanRequests;\n    mapping(uint => LoanOffer) public loanOffers;\n    uint public loanRequestCount;\n    uint public loanOfferCount;\n\n    event LoanRequested(uint requestId, address borrower, uint amount, uint interestRate);\n    event LoanOffered(uint offerId, address lender, uint amount, uint interestRate);\n    event LoanFunded(uint requestId, address lender);\n    event LoanRepaid(uint requestId, address borrower);\n\n    function requestLoan(uint _amount, uint _interestRate) public {\n        loanRequests[loanRequestCount] = LoanRequest(\n            payable(msg.sender), // Explicitly convert address to address payable\n            _amount,\n            _interestRate,\n            false,\n            false,\n            payable(address(0)) // Initialize lender as payable address(0)\n        );\n        emit LoanRequested(loanRequestCount, msg.sender, _amount, _interestRate);\n        loanRequestCount++;\n    }\n\n    function offerLoan(uint _amount, uint _interestRate) public {\n        loanOffers[loanOfferCount] = LoanOffer(\n            payable(msg.sender), // Explicitly convert address to address payable\n            _amount,\n            _interestRate,\n            false,\n            false\n        );\n        emit LoanOffered(loanOfferCount, msg.sender, _amount, _interestRate);\n        loanOfferCount++;\n    }\n\n    function fundLoan(uint _requestId) public payable {\n        LoanRequest storage request = loanRequests[_requestId];\n        require(!request.isFunded, \"Loan is already funded\");\n        require(msg.value == request.amount, \"Incorrect amount\");\n\n        request.borrower.transfer(msg.value);\n        request.isFunded = true;\n        request.lender = payable(msg.sender); // Set the lender\n        emit LoanFunded(_requestId, msg.sender);\n    }\n\n    function repayLoan(uint _requestId) public payable {\n        LoanRequest storage request = loanRequests[_requestId];\n        require(request.isFunded, \"Loan is not funded\");\n        require(!request.isRepaid, \"Loan is already repaid\");\n\n        uint repaymentAmount = request.amount + (request.amount * request.interestRate / 100);\n        require(msg.value == repaymentAmount, \"Incorrect amount\");\n\n        request.lender.transfer(msg.value); // Transfer to lender\n        request.isRepaid = true;\n        emit LoanRepaid(_requestId, msg.sender);\n    }\n\n    function getActiveLoanRequests() public view returns (LoanRequest[] memory) {\n        uint activeCount = 0;\n        for (uint i = 0; i < loanRequestCount; i++) {\n            if (!loanRequests[i].isFunded) {\n                activeCount++;\n            }\n        }\n\n        LoanRequest[] memory activeRequests = new LoanRequest[](activeCount);\n        uint j = 0;\n        for (uint i = 0; i < loanRequestCount; i++) {\n            if (!loanRequests[i].isFunded) {\n                activeRequests[j] = loanRequests[i];\n                j++;\n            }\n        }\n\n        return activeRequests;\n    }\n\n    function getActiveLoanOffers() public view returns (LoanOffer[] memory) {\n        uint activeCount = 0;\n        for (uint i = 0; i < loanOfferCount; i++) {\n            if (!loanOffers[i].isAccepted) {\n                activeCount++;\n            }\n        }\n\n        LoanOffer[] memory activeOffers = new LoanOffer[](activeCount);\n        uint j = 0;\n        for (uint i = 0; i < loanOfferCount; i++) {\n            if (!loanOffers[i].isAccepted) {\n                activeOffers[j] = loanOffers[i];\n                j++;\n            }\n        }\n\n        return activeOffers;\n    }\n}\n",
  "sourcePath": "/home/jinit/Desktop/hh-GOA/dlp/contracts/LendingPlatform.sol",
  "compiler": {
    "name": "solc",
    "version": "0.8.21+commit.d9974bed.Emscripten.clang"
  },
  "schemaVersion": "3.4.16",
  "updatedAt": "2024-07-21T17:20:49.051Z",
  "networkType": "ethereum",
  "devdoc": {
    "kind": "dev",
    "methods": {},
    "version": 1
  },
  "userdoc": {
    "kind": "user",
    "methods": {},
    "version": 1
  }
}