{
  "contractName": "LendingPlatform",
  "abi": [
    {
      "anonymous": false,
      "inputs": [
        {
          "indexed": false,
          "internalType": "uint256",
          "name": "requestId",
          "type": "uint256"
        },
        {
          "indexed": false,
          "internalType": "address",
          "name": "lender",
          "type": "address"
        }
      ],
      "name": "LoanFunded",
      "type": "event"
    },
    {
      "anonymous": false,
      "inputs": [
        {
          "indexed": false,
          "internalType": "uint256",
          "name": "offerId",
          "type": "uint256"
        },
        {
          "indexed": false,
          "internalType": "address",
          "name": "lender",
          "type": "address"
        },
        {
          "indexed": false,
          "internalType": "uint256",
          "name": "amount",
          "type": "uint256"
        },
        {
          "indexed": false,
          "internalType": "uint256",
          "name": "interestRate",
          "type": "uint256"
        }
      ],
      "name": "LoanOffered",
      "type": "event"
    },
    {
      "anonymous": false,
      "inputs": [
        {
          "indexed": false,
          "internalType": "uint256",
          "name": "requestId",
          "type": "uint256"
        },
        {
          "indexed": false,
          "internalType": "address",
          "name": "borrower",
          "type": "address"
        }
      ],
      "name": "LoanRepaid",
      "type": "event"
    },
    {
      "anonymous": false,
      "inputs": [
        {
          "indexed": false,
          "internalType": "uint256",
          "name": "requestId",
          "type": "uint256"
        },
        {
          "indexed": false,
          "internalType": "address",
          "name": "borrower",
          "type": "address"
        },
        {
          "indexed": false,
          "internalType": "uint256",
          "name": "amount",
          "type": "uint256"
        },
        {
          "indexed": false,
          "internalType": "uint256",
          "name": "interestRate",
          "type": "uint256"
        }
      ],
      "name": "LoanRequested",
      "type": "event"
    },
    {
      "inputs": [],
      "name": "loanOfferCount",
      "outputs": [
        {
          "internalType": "uint256",
          "name": "",
          "type": "uint256"
        }
      ],
      "stateMutability": "view",
      "type": "function",
      "constant": true
    },
    {
      "inputs": [
        {
          "internalType": "uint256",
          "name": "",
          "type": "uint256"
        }
      ],
      "name": "loanOffers",
      "outputs": [
        {
          "internalType": "address payable",
          "name": "lender",
          "type": "address"
        },
        {
          "internalType": "uint256",
          "name": "amount",
          "type": "uint256"
        },
        {
          "internalType": "uint256",
          "name": "interestRate",
          "type": "uint256"
        },
        {
          "internalType": "bool",
          "name": "isAccepted",
          "type": "bool"
        },
        {
          "internalType": "bool",
          "name": "isRepaid",
          "type": "bool"
        }
      ],
      "stateMutability": "view",
      "type": "function",
      "constant": true
    },
    {
      "inputs": [],
      "name": "loanRequestCount",
      "outputs": [
        {
          "internalType": "uint256",
          "name": "",
          "type": "uint256"
        }
      ],
      "stateMutability": "view",
      "type": "function",
      "constant": true
    },
    {
      "inputs": [
        {
          "internalType": "uint256",
          "name": "",
          "type": "uint256"
        }
      ],
      "name": "loanRequests",
      "outputs": [
        {
          "internalType": "address payable",
          "name": "borrower",
          "type": "address"
        },
        {
          "internalType": "uint256",
          "name": "amount",
          "type": "uint256"
        },
        {
          "internalType": "uint256",
          "name": "interestRate",
          "type": "uint256"
        },
        {
          "internalType": "bool",
          "name": "isFunded",
          "type": "bool"
        },
        {
          "internalType": "bool",
          "name": "isRepaid",
          "type": "bool"
        },
        {
          "internalType": "address payable",
          "name": "lender",
          "type": "address"
        }
      ],
      "stateMutability": "view",
      "type": "function",
      "constant": true
    },
    {
      "inputs": [
        {
          "internalType": "uint256",
          "name": "_amount",
          "type": "uint256"
        },
        {
          "internalType": "uint256",
          "name": "_interestRate",
          "type": "uint256"
        }
      ],
      "name": "requestLoan",
      "outputs": [],
      "stateMutability": "nonpayable",
      "type": "function"
    },
    {
      "inputs": [
        {
          "internalType": "uint256",
          "name": "_amount",
          "type": "uint256"
        },
        {
          "internalType": "uint256",
          "name": "_interestRate",
          "type": "uint256"
        }
      ],
      "name": "offerLoan",
      "outputs": [],
      "stateMutability": "nonpayable",
      "type": "function"
    },
    {
      "inputs": [
        {
          "internalType": "uint256",
          "name": "_requestId",
          "type": "uint256"
        }
      ],
      "name": "fundLoan",
      "outputs": [],
      "stateMutability": "payable",
      "type": "function",
      "payable": true
    },
    {
      "inputs": [
        {
          "internalType": "uint256",
          "name": "_requestId",
          "type": "uint256"
        }
      ],
      "name": "repayLoan",
      "outputs": [],
      "stateMutability": "payable",
      "type": "function",
      "payable": true
    },
    {
      "inputs": [],
      "name": "getActiveLoanRequests",
      "outputs": [
        {
          "components": [
            {
              "internalType": "address payable",
              "name": "borrower",
              "type": "address"
            },
            {
              "internalType": "uint256",
              "name": "amount",
              "type": "uint256"
            },
            {
              "internalType": "uint256",
              "name": "interestRate",
              "type": "uint256"
            },
            {
              "internalType": "bool",
              "name": "isFunded",
              "type": "bool"
            },
            {
              "internalType": "bool",
              "name": "isRepaid",
              "type": "bool"
            },
            {
              "internalType": "address payable",
              "name": "lender",
              "type": "address"
            }
          ],
          "internalType": "struct LendingPlatform.LoanRequest[]",
          "name": "",
          "type": "tuple[]"
        }
      ],
      "stateMutability": "view",
      "type": "function",
      "constant": true
    },
    {
      "inputs": [],
      "name": "getActiveLoanOffers",
      "outputs": [
        {
          "components": [
            {
              "internalType": "address payable",
              "name": "lender",
              "type": "address"
            },
            {
              "internalType": "uint256",
              "name": "amount",
              "type": "uint256"
            },
            {
              "internalType": "uint256",
              "name": "interestRate",
              "type": "uint256"
            },
            {
              "internalType": "bool",
              "name": "isAccepted",
              "type": "bool"
            },
            {
              "internalType": "bool",
              "name": "isRepaid",
              "type": "bool"
            }
          ],
          "internalType": "struct LendingPlatform.LoanOffer[]",
          "name": "",
          "type": "tuple[]"
        }
      ],
      "stateMutability": "view",
      "type": "function",
      "constant": true
    }
  ],
  "bytecode": "0x608060405234801561001057600080fd5b50611593806100206000396000f3fe6080604052600436106100915760003560e01c8063aa452fa611610059578063aa452fa614610174578063ab7b1c891461019d578063b786f978146101b9578063d1b332f4146101e4578063dc4c2e7f1461022657610091565b8063150a6422146100965780632c7bdd4b146100c1578063846b909a14610102578063904796d41461011e5780639772d7ee14610149575b600080fd5b3480156100a257600080fd5b506100ab61024f565b6040516100b891906113bc565b60405180910390f35b3480156100cd57600080fd5b506100e860048036038101906100e39190610ea7565b610255565b6040516100f9959493929190611244565b60405180910390f35b61011c60048036038101906101179190610ea7565b6102c5565b005b34801561012a57600080fd5b5061013361047b565b60405161014091906112f8565b60405180910390f35b34801561015557600080fd5b5061015e61064b565b60405161016b919061131a565b60405180910390f35b34801561018057600080fd5b5061019b60048036038101906101969190610ed0565b61086e565b005b6101b760048036038101906101b29190610ea7565b610a1c565b005b3480156101c557600080fd5b506101ce610bfc565b6040516101db91906113bc565b60405180910390f35b3480156101f057600080fd5b5061020b60048036038101906102069190610ea7565b610c02565b60405161021d96959493929190611297565b60405180910390f35b34801561023257600080fd5b5061024d60048036038101906102489190610ed0565b610c98565b005b60035481565b60016020528060005260406000206000915090508060000160009054906101000a900473ffffffffffffffffffffffffffffffffffffffff16908060010154908060020154908060030160009054906101000a900460ff16908060030160019054906101000a900460ff16905085565b600080600083815260200190815260200160002090508060030160009054906101000a900460ff161561032d576040517f08c379a00000000000000000000000000000000000000000000000000000000081526004016103249061133c565b60405180910390fd5b80600101543414610373576040517f08c379a000000000000000000000000000000000000000000000000000000000815260040161036a9061139c565b60405180910390fd5b8060000160009054906101000a900473ffffffffffffffffffffffffffffffffffffffff1673ffffffffffffffffffffffffffffffffffffffff166108fc349081150290604051600060405180830381858888f193505050501580156103dd573d6000803e3d6000fd5b5060018160030160006101000a81548160ff021916908315150217905550338160030160026101000a81548173ffffffffffffffffffffffffffffffffffffffff021916908373ffffffffffffffffffffffffffffffffffffffff1602179055507f15feab5d3eb17171632762cf769709a315dd15f487a556c0dfb8a259c8f186cc823360405161046f9291906113d7565b60405180910390a15050565b60606000805b6003548110156104c9576001600082815260200190815260200160002060030160009054906101000a900460ff166104bc5781806001019250505b8080600101915050610481565b5060608167ffffffffffffffff811180156104e357600080fd5b5060405190808252806020026020018201604052801561051d57816020015b61050a610de3565b8152602001906001900390816105025790505b5090506000805b600354811015610641576001600082815260200190815260200160002060030160009054906101000a900460ff1661063457600160008281526020019081526020016000206040518060a00160405290816000820160009054906101000a900473ffffffffffffffffffffffffffffffffffffffff1673ffffffffffffffffffffffffffffffffffffffff1673ffffffffffffffffffffffffffffffffffffffff16815260200160018201548152602001600282015481526020016003820160009054906101000a900460ff161515151581526020016003820160019054906101000a900460ff16151515158152505083838151811061062057fe5b602002602001018190525081806001019250505b8080600101915050610524565b5081935050505090565b60606000805b6002548110156106985760008082815260200190815260200160002060030160009054906101000a900460ff1661068b5781806001019250505b8080600101915050610651565b5060608167ffffffffffffffff811180156106b257600080fd5b506040519080825280602002602001820160405280156106ec57816020015b6106d9610e2c565b8152602001906001900390816106d15790505b5090506000805b6002548110156108645760008082815260200190815260200160002060030160009054906101000a900460ff16610857576000808281526020019081526020016000206040518060c00160405290816000820160009054906101000a900473ffffffffffffffffffffffffffffffffffffffff1673ffffffffffffffffffffffffffffffffffffffff1673ffffffffffffffffffffffffffffffffffffffff16815260200160018201548152602001600282015481526020016003820160009054906101000a900460ff161515151581526020016003820160019054906101000a900460ff161515151581526020016003820160029054906101000a900473ffffffffffffffffffffffffffffffffffffffff1673ffffffffffffffffffffffffffffffffffffffff1673ffffffffffffffffffffffffffffffffffffffff168152505083838151811061084357fe5b602002602001018190525081806001019250505b80806001019150506106f3565b5081935050505090565b6040518060c001604052803373ffffffffffffffffffffffffffffffffffffffff168152602001838152602001828152602001600015158152602001600015158152602001600073ffffffffffffffffffffffffffffffffffffffff16815250600080600254815260200190815260200160002060008201518160000160006101000a81548173ffffffffffffffffffffffffffffffffffffffff021916908373ffffffffffffffffffffffffffffffffffffffff160217905550602082015181600101556040820151816002015560608201518160030160006101000a81548160ff02191690831515021790555060808201518160030160016101000a81548160ff02191690831515021790555060a08201518160030160026101000a81548173ffffffffffffffffffffffffffffffffffffffff021916908373ffffffffffffffffffffffffffffffffffffffff1602179055509050507f68595dbe887ae7f496f2c88735019a8918919a1decfdee6bdb460480ab87decb6002543384846040516109fe9493929190611400565b60405180910390a16002600081548092919060010191905055505050565b600080600083815260200190815260200160002090508060030160009054906101000a900460ff16610a83576040517f08c379a0000000000000000000000000000000000000000000000000000000008152600401610a7a9061135c565b60405180910390fd5b8060030160019054906101000a900460ff1615610ad5576040517f08c379a0000000000000000000000000000000000000000000000000000000008152600401610acc9061137c565b60405180910390fd5b60006064826002015483600101540281610aeb57fe5b048260010154019050803414610b36576040517f08c379a0000000000000000000000000000000000000000000000000000000008152600401610b2d9061139c565b60405180910390fd5b8160030160029054906101000a900473ffffffffffffffffffffffffffffffffffffffff1673ffffffffffffffffffffffffffffffffffffffff166108fc349081150290604051600060405180830381858888f19350505050158015610ba0573d6000803e3d6000fd5b5060018260030160016101000a81548160ff0219169083151502179055507fe69d7686a8bc68278b8c5419579f91716b3ef2ac2fac0d8cf80b8011f8f458a48333604051610bef9291906113d7565b60405180910390a1505050565b60025481565b60006020528060005260406000206000915090508060000160009054906101000a900473ffffffffffffffffffffffffffffffffffffffff16908060010154908060020154908060030160009054906101000a900460ff16908060030160019054906101000a900460ff16908060030160029054906101000a900473ffffffffffffffffffffffffffffffffffffffff16905086565b6040518060a001604052803373ffffffffffffffffffffffffffffffffffffffff1681526020018381526020018281526020016000151581526020016000151581525060016000600354815260200190815260200160002060008201518160000160006101000a81548173ffffffffffffffffffffffffffffffffffffffff021916908373ffffffffffffffffffffffffffffffffffffffff160217905550602082015181600101556040820151816002015560608201518160030160006101000a81548160ff02191690831515021790555060808201518160030160016101000a81548160ff0219169083151502179055509050507f9c30abd0e9d523017113f5d5e193a610ccac429f1148088cb393f58d547e3f57600354338484604051610dc59493929190611400565b60405180910390a16003600081548092919060010191905055505050565b6040518060a00160405280600073ffffffffffffffffffffffffffffffffffffffff16815260200160008152602001600081526020016000151581526020016000151581525090565b6040518060c00160405280600073ffffffffffffffffffffffffffffffffffffffff1681526020016000815260200160008152602001600015158152602001600015158152602001600073ffffffffffffffffffffffffffffffffffffffff1681525090565b600081359050610ea181611546565b92915050565b600060208284031215610eb957600080fd5b6000610ec784828501610e92565b91505092915050565b60008060408385031215610ee357600080fd5b6000610ef185828601610e92565b9250506020610f0285828601610e92565b9150509250929050565b6000610f188383611143565b60a08301905092915050565b6000610f3083836111ab565b60c08301905092915050565b610f4581611510565b82525050565b610f54816114c8565b82525050565b610f63816114c8565b82525050565b6000610f7482611465565b610f7e8185611495565b9350610f8983611445565b8060005b83811015610fba578151610fa18882610f0c565b9750610fac8361147b565b925050600181019050610f8d565b5085935050505092915050565b6000610fd282611470565b610fdc81856114a6565b9350610fe783611455565b8060005b83811015611018578151610fff8882610f24565b975061100a83611488565b925050600181019050610feb565b5085935050505092915050565b61102e816114da565b82525050565b61103d816114da565b82525050565b60006110506016836114b7565b91507f4c6f616e20697320616c72656164792066756e646564000000000000000000006000830152602082019050919050565b60006110906012836114b7565b91507f4c6f616e206973206e6f742066756e64656400000000000000000000000000006000830152602082019050919050565b60006110d06016836114b7565b91507f4c6f616e20697320616c726561647920726570616964000000000000000000006000830152602082019050919050565b60006111106010836114b7565b91507f496e636f727265637420616d6f756e74000000000000000000000000000000006000830152602082019050919050565b60a0820160008201516111596000850182610f4b565b50602082015161116c6020850182611226565b50604082015161117f6040850182611226565b5060608201516111926060850182611025565b5060808201516111a56080850182611025565b50505050565b60c0820160008201516111c16000850182610f4b565b5060208201516111d46020850182611226565b5060408201516111e76040850182611226565b5060608201516111fa6060850182611025565b50608082015161120d6080850182611025565b5060a082015161122060a0850182610f4b565b50505050565b61122f81611506565b82525050565b61123e81611506565b82525050565b600060a0820190506112596000830188610f5a565b6112666020830187611235565b6112736040830186611235565b6112806060830185611034565b61128d6080830184611034565b9695505050505050565b600060c0820190506112ac6000830189610f5a565b6112b96020830188611235565b6112c66040830187611235565b6112d36060830186611034565b6112e06080830185611034565b6112ed60a0830184610f5a565b979650505050505050565b600060208201905081810360008301526113128184610f69565b905092915050565b600060208201905081810360008301526113348184610fc7565b905092915050565b6000602082019050818103600083015261135581611043565b9050919050565b6000602082019050818103600083015261137581611083565b9050919050565b60006020820190508181036000830152611395816110c3565b9050919050565b600060208201905081810360008301526113b581611103565b9050919050565b60006020820190506113d16000830184611235565b92915050565b60006040820190506113ec6000830185611235565b6113f96020830184610f3c565b9392505050565b60006080820190506114156000830187611235565b6114226020830186610f3c565b61142f6040830185611235565b61143c6060830184611235565b95945050505050565b6000819050602082019050919050565b6000819050602082019050919050565b600081519050919050565b600081519050919050565b6000602082019050919050565b6000602082019050919050565b600082825260208201905092915050565b600082825260208201905092915050565b600082825260208201905092915050565b60006114d3826114e6565b9050919050565b60008115159050919050565b600073ffffffffffffffffffffffffffffffffffffffff82169050919050565b6000819050919050565b600061151b82611522565b9050919050565b600061152d82611534565b9050919050565b600061153f826114e6565b9050919050565b61154f81611506565b811461155a57600080fd5b5056fea264697066735822122045aacdc3b91f128aee35ed9246e7f5c69dbbb33db140a630e53a2190bb13e12e64736f6c63430007010033",
  "immutableReferences": {},
  "source": "// SPDX-License-Identifier: MIT\npragma solidity ^0.7.0;\npragma experimental ABIEncoderV2;\n\ncontract LendingPlatform {\n    struct LoanRequest {\n        address payable borrower;\n        uint amount;\n        uint interestRate;\n        bool isFunded;\n        bool isRepaid;\n        address payable lender; // Added lender address to LoanRequest\n    }\n\n    struct LoanOffer {\n        address payable lender;\n        uint amount;\n        uint interestRate;\n        bool isAccepted;\n        bool isRepaid;\n    }\n\n    mapping(uint => LoanRequest) public loanRequests;\n    mapping(uint => LoanOffer) public loanOffers;\n    uint public loanRequestCount;\n    uint public loanOfferCount;\n\n    event LoanRequested(uint requestId, address borrower, uint amount, uint interestRate);\n    event LoanOffered(uint offerId, address lender, uint amount, uint interestRate);\n    event LoanFunded(uint requestId, address lender);\n    event LoanRepaid(uint requestId, address borrower);\n\n    function requestLoan(uint _amount, uint _interestRate) public {\n        loanRequests[loanRequestCount] = LoanRequest(\n            payable(msg.sender), // Explicitly convert address to address payable\n            _amount,\n            _interestRate,\n            false,\n            false,\n            payable(address(0)) // Initialize lender as payable address(0)\n        );\n        emit LoanRequested(loanRequestCount, msg.sender, _amount, _interestRate);\n        loanRequestCount++;\n    }\n\n    function offerLoan(uint _amount, uint _interestRate) public {\n        loanOffers[loanOfferCount] = LoanOffer(\n            payable(msg.sender), // Explicitly convert address to address payable\n            _amount,\n            _interestRate,\n            false,\n            false\n        );\n        emit LoanOffered(loanOfferCount, msg.sender, _amount, _interestRate);\n        loanOfferCount++;\n    }\n\n    function fundLoan(uint _requestId) public payable {\n        LoanRequest storage request = loanRequests[_requestId];\n        require(!request.isFunded, \"Loan is already funded\");\n        require(msg.value == request.amount, \"Incorrect amount\");\n\n        request.borrower.transfer(msg.value);\n        request.isFunded = true;\n        request.lender = payable(msg.sender); // Set the lender\n        emit LoanFunded(_requestId, msg.sender);\n    }\n\n    function repayLoan(uint _requestId) public payable {\n        LoanRequest storage request = loanRequests[_requestId];\n        require(request.isFunded, \"Loan is not funded\");\n        require(!request.isRepaid, \"Loan is already repaid\");\n\n        uint repaymentAmount = request.amount + (request.amount * request.interestRate / 100);\n        require(msg.value == repaymentAmount, \"Incorrect amount\");\n\n        request.lender.transfer(msg.value); // Transfer to lender\n        request.isRepaid = true;\n        emit LoanRepaid(_requestId, msg.sender);\n    }\n\n    function getActiveLoanRequests() public view returns (LoanRequest[] memory) {\n        uint activeCount = 0;\n        for (uint i = 0; i < loanRequestCount; i++) {\n            if (!loanRequests[i].isFunded) {\n                activeCount++;\n            }\n        }\n\n        LoanRequest[] memory activeRequests = new LoanRequest[](activeCount);\n        uint j = 0;\n        for (uint i = 0; i < loanRequestCount; i++) {\n            if (!loanRequests[i].isFunded) {\n                activeRequests[j] = loanRequests[i];\n                j++;\n            }\n        }\n\n        return activeRequests;\n    }\n\n    function getActiveLoanOffers() public view returns (LoanOffer[] memory) {\n        uint activeCount = 0;\n        for (uint i = 0; i < loanOfferCount; i++) {\n            if (!loanOffers[i].isAccepted) {\n                activeCount++;\n            }\n        }\n\n        LoanOffer[] memory activeOffers = new LoanOffer[](activeCount);\n        uint j = 0;\n        for (uint i = 0; i < loanOfferCount; i++) {\n            if (!loanOffers[i].isAccepted) {\n                activeOffers[j] = loanOffers[i];\n                j++;\n            }\n        }\n\n        return activeOffers;\n    }\n}\n",
  "sourcePath": "C:/Users/lenov/Ankushpandey/HHG/hhg/contracts/LendingPlatform.sol",
  "compiler": {
    "name": "solc",
    "version": "0.7.1+commit.f4a555be.Emscripten.clang"
  },
  "schemaVersion": "3.2.3",
  "updatedAt": "2024-07-22T17:25:40.594Z",
  "networkType": "ethereum",
  "devdoc": {
    "kind": "dev",
    "methods": {},
    "version": 1
  },
  "userdoc": {
    "kind": "user",
    "methods": {},
    "version": 1
  }
}